S01000004C6162395F6578322E737265635E
S11300004DC0000068C0000066C0000064C000006D
S113001062C0000060C000005EC000005CC0000060
S11300205AC0000058C0000056C0000054C0000070
S113003052C0000050C000004EC000004CC0000080
S11300404AC0000048C0000046C0000044C0000090
S113005042C0000040C000003EC000003CC00000A0
S11300603AC0000038C0000036C0000034C00000B0
S113007032C0000030C000002EC000002CC00000C0
S11300802AC0000028C0000026C00000E200E900E9
S1130090EF00F60016011A012001240111241FBEED
S11300A0CFEFD0E4DEBFCDBF11E0A0E0B1E0EAECD9
S11300B0F5E000E00BBF02C007900D92A032B1073B
S11300C0D9F721E0A0E2B1E001C01D92A732B20746
S11300D0E1F7EDD078C294CFCF92DF92EF92FF9206
S11300E06B017C019B01AC016091200170912101A5
S11300F08091220190912301E4D0882309F440C027
S113010020E030E0A901C701B601DBD0811104C0B1
S113011085B5887085BD03C085B5836085BD28E538
S113012039E344E75FE3C701B601CBD088231CF46D
S11301308FEF87BD1CC020E034E244EF56E4C701D2
S1130140B601D1D1181614F417BC11C020E030E068
S113015040E053E4C701B601CAD19B01AC0160E0A1
S113016074E284EF9AE4B1D018D1615067BD16BC33
S1130170C0922001D0922101E0922201F092230149
S1130180FF90EF90DF90CF90089581E484BD8BE0E1
S113019085BD60E070E0CB019FCF089514BC15BC11
S11301A0089580B1809587708093250190912601F0
S11301B0492F50E04830510508F04CC0FA01EA5B81
S11301C0FF4FF8C1813009F050C082E080932601CE
S11301D04EC0813009F46AC01092260146C08130B5
S11301E009F445C083E0809326010895823059F4D0
S11301F080912401873018F48F5F8093240184E078
S11302008093260136C0843059F4809124018823D8
S113021019F081508093240186E08093260138C030
S1130220813009F043C080932601089585E08093CE
S1130230260108958230D1F183E080932601089548
S113024087E0809326010895843081F183E08093D0
S113025026010895923059F018F4992331F0089545
S1130260943039F09630A1F0089598CF08958DCF49
S11302700895E0912401F0E0EE0FFF1FEE0FFF1F41
S1130280E050FF4F608171818281938125CF089571
S1130290E0912401F0E0EE0FFF1FEE0FFF1FE0508E
S11302A0FF4F608171818281938116CF089511B8C7
S11302B08FEF82B984B915B868DF1092260171DF17
S11302C0FECF9CD008F481E008950CD0D2C0CAD0EF
S11302D040F0C1D030F021F45F3F19F0B3C05111A8
S11302E0FCC0B6C0D7D098F39923C9F35523B1F312
S11302F0951B550BBB27AA2762177307840738F091
S11303009F5F5F4F220F331F441FAA1FA9F333D0EF
S11303100E2E3AF0E0E830D091505040E695001CA3
S1130320CAF729D0FE2F27D0660F771F881FBB1F5F
S1130330261737074807AB07B0E809F0BB0B802D39
S1130340BF01FF2793585F4F2AF09E3F510568F085
S113035079C0C3C05F3FECF3983EDCF38695779594
S11303606795B795F7959F5FC9F7880F911D969587
S1130370879597F90895E1E0660F771F881FBB1FE3
S1130380621773078407BA0720F0621B730B840B90
S1130390BA0BEE1F88F7E095089504D06894B11164
S11303A09CC008957FD088F09F5790F0B92F99276B
S11303B0B751A0F0D1F0660F771F881F991F1AF06C
S11303C0BA95C9F712C0B13081F086D0B1E0089572
S11303D083C0672F782F8827B85F39F0B93FCCF3F3
S11303E0869577956795B395D9F73EF49095809562
S11303F0709561957F4F8F4F9F4F0895990F000817
S1130400550FAA0BE0E8FEEF16161706E807F907E2
S1130410C0F012161306E407F50798F0621B730B7D
S1130420840B950B39F40A2661F0232B242B252BFE
S113043021F408950A2609F4A140A6958FEF811DA1
S1130440811D089597F99F6780E870E060E0089542
S11304509FEF80EC089500240A94161617061806D8
S11304600906089500240A941216130614060506B4
S11304700895092E0394000C11F4882352F0BB0F45
S113048040F4BF2B11F460FF04C06F5F7F4F8F4FA8
S11304909F4F089557FD9058440F551F59F05F3FE3
S11304A071F04795880F97FB991F61F09F3F79F092
S11304B087950895121613061406551FF2CF469514
S11304C0F1DF08C0161617061806991FF1CF869596
S11304D07105610508940895E894BB27662777277A
S11304E0CB0197F908958ADF08F48FEF08950BD0B4
S11304F0C0CFB1DF28F0B6DF18F0952309F0A2CF02
S1130500A7CF1124EACFC6DFA0F3959FD1F3950FAF
S113051050E0551F629FF001729FBB27F00DB11D83
S1130520639FAA27F00DB11DAA1F649F6627B00D13
S1130530A11D661F829F2227B00DA11D621F739FFC
S1130540B00DA11D621F839FA00D611D221F749F0A
S11305503327A00D611D231F849F600D211D822F51
S1130560762F6A2F11249F5750408AF0E1F0882398
S11305704AF0EE0FFF1FBB1F661F771F881F9150A5
S11305805040A9F79E3F510570F05CCFA6CF5F3F66
S1130590ECF3983EDCF3869577956795B795F795D8
S11305A0E7959F5FC1F7FE2B880F911D9695879560
S11305B097F90895EE0FFF1F0024001C0BBE07904F
S10D05C0F691E02D0994F894FFCFA2
S11305CAA4D082437BD49243A4D0A443719DAE4366
S11305DA0000C4430000DC43A4F0F64300D0024404
S9030000FC
